0000010000000071678VIND. 5520 SIR ÒVARAZDINEC MINI                                                                    
0000020000000071563KOKA 12012 SENDVICÒPILECI NAREZAK                                                                  
0000030000000071564KOKA 12024ÒDIJETALKA                                                                               
0000040000000071565KOKA 12032ÒPRSA U OVITKU                                                                           
0000050000000071566KOKA 12048 POSEBNAÒKOBASICA                                                                        
0000060000000071567KOKA 12052 PARISKAÒKOBASICA                                                                        
0000070000000071568KOKA 12064ÒMORTADELA                                                                               
0000080000000071569KOKA 12068 POLIKOÒSTANDARD                                                                         
0000090000000070056PIK V.01002ÒSRIJEMSKA KOBASICA                                                                     
0000100000000070057PIK V.01005ÒKULEN                                                                                  
0000110000000070058PIK V.01006ÒKULEN VRBOVECKI                                                                        
0000120000000070059PIK V.01007ÒCAJNA KOBASICA                                                                         
0000130000000070062PIK V.17036ÒMORTADELA MINI                                                                         
0000140000000070063PIK V.17020ÒSUNKA U CRIJEVU                                                                        
0000150000000070064PIK V.17037ÒTIROLSKA MINI                                                                          
0000160000000070065PIK V.19002ÒPARISKA                                                                                
0000170000000070066PIK V.19011ÒEKSTRA                                                                                 
0000180000000070067PIK V.19023ÒEKSTRA MINI                                                                            
0000190000000070068PIK V.19024ÒPOKO MINI                                                                              
0000200000000070069PIK V.19025ÒPOKO S POVR.MINI                                                                       
0000210000000070072PIK V.31008ÒHREN.U P.CR.DO 500G                                                                    
0000220000000060357PP 0000 PIZZAÒKOBASICA                                                                             
0000230000000060350PP 1110 HRENOVKE VP                                                                                
0000240000000060352PP 1125 POLI                                                                                       
0000250000000060354PP 1130 KOKO                                                                                       
0000260000000060355PP 1135 POETOVIO                                                                                   
0000270000000060351PP 1200 HRENOVKEÒMINI                                                                              
0000280000000060353PP 1300 POLIÒS POVRCEM                                                                             
0000290000000060356PP 5368 PASTETAÒU CRIJEVU                                                                          
0000300000000071580IMPROM 30-09ÒDIM.SVINJ.VRAT BK                                                                     
0000310000000071581IMPROM 31-02ÒMINI SUNKA                                                                            
0000320000000071582IMPROM 31-03ÒEXTRA KOBASICA                                                                        
0000330000000071584IMPROM 31-09ÒSUNKARICA                                                                             
0000340000000071585IMPROM 31-13ÒSUNKA ZA PICU                                                                         
0000350000000071586IMPROM 31-15ÒSUNKA U OVITKU                                                                        
0000360000000071589IMPROM 34-01ÒMINI MINI SUNKA                                                                       
0000370000000071590IMPROM 34-02ÒMINI EXTRA KOB                                                                        
0000380000000071591IMPROM 34-03ÒMINI SUNKARICA                                                                        
0000390000000071592IMPROM 34-05ÒMINI TIROLSKA                                                                         
0000400000000071593IMPROM 34-07ÒMINI MORTADELA                                                                        
0000410000000071571KOKA 12076 PILECAÒVAKUUM HRENOVKA                                                                  
0000420000000055400ZDENKA 142ÒSIR EDAMAC                                                                              
0000430000000055401ZDENKA 143ÒSIR EDAMAC MALI                                                                         
0000440000000055402ZDENKA 144ÒSIR ZDENKO                                                                              
0000450000000055403ZDENKA 145ÒSIR ZDENKO MALI                                                                         
0000460000000055404ZDENKA 149ÒSIR SPORT                                                                               
0000470000000070077PIK V 01015ÒZRINSKI SALAMA                                                                         
0000480000000071575KOKA 12051ÒPOSEBNA POLI                                                                            
0000490000000070804SIRELA 52069ÒBJELOVARAC VAK                                                                        
0000500000000070806SIRELA 58452ÒT U R I S T                                                                           
0000510000000070808SIRELA 58772ÒEMENTALAC                                                                             
0000520000000070810SIRELA 60564ÒDIMSI BLOK                                                                            
0000530000000070811SIRELA 62371ÒTRAPIST VAKUM                                                                         
0000540000000070812SIRELA 62595ÒGRANICAR                                                                              
0000550000000070813SIRELA 66872ÒPODRAVEC CCA 1KG                                                                      
0000560000000070814SIRELA 76342ÒG O U D A                                                                             
0000570000000071594KOKA 12025ÒDIJETALKA POLI                                                                          
0000580000000069380SLAVIJA SIRÒEDAMAC MALI                                                                            
0000590000000069379SLAVIJA SIRÒEDAMAC VELIKI                                                                          
0000600000000069383SLAVIJA SIRÒMINI PETROVOS                                                                          
0000610000000069382SLAVIJA SIRÒPETROVOSELEC                                                                           
0000620000000069381SLAVIJA SIRÒTRAPIST VAKUM                                                                          
0000630000000071595IMPROM 35 01ÒVEGETARIANA                                                                           
0000640000000071596IMPROM 35 02ÒMINI VEGETAR                                                                          
0000650000000070080PIK V 17003ÒSUNKARICA                                                                              
0000660000000071600IMPROM 31 06ÒDIM SUNKA U CRIJEVU                                                                   
0000670000000071597IMPROM 31 07ÒPARIZER KOBASICA                                                                      
0000680000000071598IMPROM 31 21ÒMESNI SIR                                                                             
0000690000000070815SIRELA 53206ÒKOZJAK                                                                                
0000700000000070816SIRELA 56026ÒPODRAVEC CCA 2 KG                                                                     
0000710000000060400STAN 102ÒEKSTRA KOBAS VELIKA                                                                       
0000720000000060402STAN 109ÒPIKANT S SAMPINJON                                                                        
0000730000000060403STAN 110ÒPIKANT S POVRCEM                                                                          
0000740000000060406STAN 117ÒKANT SALAMA                                                                               
0000750000000060410STAN 127ÒSUNKA SPEK                                                                                
0000760000000060412STAN 129ÒBECKA SUNKA                                                                               
0000770000000060416STAN 154ÒKULEN                                                                                     
0000780000000070049PIK V19019ÒPOKO KOB PIL S POVR                                                                     
0000790000000070015PIK V 19018ÒPOKO KOB OD PILE                                                                       
0000800000000069914GAVRILOVIC KULEN                                                                                   
0000810000000069915GAVRILOVIC PARISKA                                                                                 
0000820000000069916GAVRILOVIC POSEBNA                                                                                 
0000830000000069913GAVRILOVIC SALAMAÒZIMSKA                                                                           
0000840000000045011IMPROM 3012ÒDIMLJENA SUN BK                                                                        
0000850000000070801SIRELA 53414ÒPASKI SIR                                                                             
0000860000000070800SIRELA 64201ÒKALNIK                                                                                
0000870000000070802SIRELA 55856ÒLIVANJSKI SIR UV                                                                      
0000880000000011365BELJE SIRÒBARANJAC 45                                                                              
0000890000000011367BELJE SIRÒHERKULES 45                                                                              
0000900000000011366BELJE SIRÒSPECIJAL 45                                                                              
0000910000000071541IMPROM 31 17ÒTIROLSKA KOBASICA                                                                     
0000920000000071343IMPROM 35 03ÒVEGETARIANA S POV                                                                     
0000930000000071542KOKA 11140ÒUSITNJENO MESO SMRZ.                                                                    
0000940000000069917GAVRILOVICÒPOSEBNA MINI                                                                            
0000950000000071809KOKAÒDELKO POLI                                                                                    
0000960000000071810KOKAÒPRSA U OVITKU POLI                                                                            
0000970000000070527SIRELA 55669ÒBJELOVARSKA FETA                                                                      
0000980000000045075PPK 630008ÒSUNKA U OVITKU                                                                          
0000990000000045076PPK 630125ÒSUNKA U OVITKU M                                                                        
0001000000000045078PPK K.SUNKARICAÒU OVITKU MINI                                                                      
0001010000000045080PPK 630161ÒSIKO MINI                                                                               
0001020000000070820SIRELA 60772ÒRIBANAC CCA 25                                                                        
0001030000000071344IMPROM 32 01ÒSUNKA MANDOLINA                                                                       
0001040000000071345IMPROM 35 05ÒVEGETAR NAMAZ                                                                         
0001050000000071862KOKA 11101ÒPILE GRIL KUT SMR                                                                       
0001060000000071863KOKAÒBATAK I ZAB SMRZ                                                                              
0001070000000010936STANÒSIR MARIGOLDÒ                                                                                 
0001080000000071865SIRELA54523ÒGOUDA BLOK REZ                                                                         
0001090000000069918GAVRILOVICÒTIROLSKA KOBASICA                                                                       
0001100000000069919GAVRILOVICÒMORTADELA                                                                               
0001110000000071514KOKA 11137ÒKOKOSIJE MESO SMRZ.                                                                     
0001120000000071510KOKA11138ÒKOKOSIJE MESO POL. SMRZ.                                                                 
0001130000000071509KOKA 11139ÒKOKOSIJI RASJEK SMRZ.                                                                   
0001140000000011172IMPROM 31 16ÒROSTILJ KOBASICA                                                                      
0001150000000055413ZDENKA 146ÒSIR ZDENACKI                                                                            
0001160000000069920GAVRILOVICÒSUNKA ZA PICU                                                                           
0001170000000071544VINDIJA 5390ÒSIR TILZIT 2 5                                                                        
0001180000000071433VIND. 5800ÒSIR GOUDA BLOK                                                                          
0001190000000071545VIND 5760ÒSIR EDAMAC 2 5 KG                                                                        
0001200000000070046PIK V 17005ÒTIROLSKA                                                                               
0001210000000070045PIK V 17047ÒSOMERICA                                                                               
0001220000000060362PP 0000ÒHAMBURGER SLANINA                                                                          
0001230000000071866KOKA 11105BATAK+ZABAT.ÒNA PODLOŠKU SMRZ.                                                           
0001240000000071867KOKA 11123ÒLEDJA I HRBAT SMR.                                                                      
0001250000000016404DIONIZ 001KÒOSLIC BEZ GLAVE                                                                        
0001260000000016405DIONIZ 003KÒOSLIC FILETI                                                                           
0001270000000016407DIONIZ009KÒKARP. BEZ GLAVE                                                                         
0001280000000016421DIONIZ 088KÒSKUSA 1000G 1                                                                          
0001290000000045774IMPROM31 22ÒSUNKA ZA PICU                                                                          
0001300000000045775IMPROM 3126ÒZASEKA                                                                                 
0001310000000045776IMPROM 31 29ÒMESNI NAREZAK                                                                         
0001320000000040004KOKA 11108ÒZABATAK PODL.SMR                                                                        
0001330000000040006KOKA 11114ÒPILECA PRSA POD SMRZ.                                                                   
0001340000000040007KOKA 11117ÒJETRA+SRCEÒNA PODLOŠKU SMRZ.                                                            
0001350000000040009KOKA 11126ÒPIL.KRILA PODL.SM.                                                                      
0001360000000040038KOKA 11141ÒUSITNJ.MESO PODL SM                                                                     
0001370000000045112PPK K 122ÒPOSEBNA MINI                                                                             
0001380000000045113PPK K124ÒPARIZER MINI                                                                              
0001390000000045115PPK K005ÒSUNKARICA                                                                                 
0001400000000060370ACCRA PAMPLONE                                                                                     
0001410000000060371ACCRA PALACIEGO                                                                                    
0001420000000060372PP 0000 KULEN CELIE                                                                                
0001430000000060363PP 0000ÒPILICI GRIL                                                                                
0001440000000060364PP 0000Ò  BATACIÒ1BATACI                                                                           
0001450000000060365PP 0000Ò PRSA SM.Ò1PRSA                                                                            
0001460000000060366PP 0000ÒJETRA SRCE                                                                                 
0001470000000060367PP 0000Ò ZELUDACÒ1ZELUDAC                                                                          
0001480000000060369PP 0000ÒMLJEVENO MESOÒ1MLJEVENO MESO                                                               
0001490000000029937KRAS 1001ÒKRASKI PRSUT SK.CIJ                                                                      
0001500000000029940KRAS 1013ÒKRAS.PRSUT VP NAR                                                                        
0001510000000029942KRAS 1016ÒKRAS.PANC.VP NAREZ                                                                       
0001520000000029943KRAS 1017ÒKRAS.VRATINA VP NA                                                                       
0001530000000029948KRAS 1029ÒKRAS.VRATINA VP                                                                          
0001540000000029961KRAS 1200ÒJEGER                                                                                    
0001550000000029945KRAS 1209ÒKULEN VP                                                                                 
0001560000000029946KRAS 1234ÒTABOR SAL.CAJNA VP                                                                       
0001570000000029957KRAS 1272ÒDIM.SVINJ.VRAT BK                                                                        
0001580000000029958KRAS 1273ÒDIM.SUNKA BK VP                                                                          
0001590000000029962KRAS 1293ÒSUNKA U CRIJ.MINI                                                                        
0001600000000029941KRAS 1302ÒKMECKI PRS.VP NAR                                                                        
0001610000000029955KRAS 1500ÒMEDITERANKA 1,1OBIC  1,1OBICNA                                                           
0001620000000029956KRAS 1501ÒMEDITER.1,1 MASL.                                                                        
0001630000000070093PIK V.17046ÒPRASKA KOBASICA                                                                        
0001640000000030026E.A.1189ÒOSLIC BEZ GLAVE                                                                           
0001650000000030027E.A1056ÒOSLIC FILETI                                                                               
0001660000000030029E.A 1211ÒLIGNJA TUBA                                                                               
0001670000000070822SIRELA76358ÒPOKORELO                                                                               
0001680000000070824SIRELA 79708ÒCINCAR                                                                                
0001690000000040065KOKA 12013ÒSENDVIC PIL.NAR P                                                                       
0001700000000069922GAVRILOVICÒSUNKARICA                                                                               
0001710000000069923GAVRILOVICÒTIROLSKA KOBAS.MINI                                                                     
0001720000000045173PPK K.012ÒPOSEBNA                                                                                  
0001730000000045174PPK K.001ÒPARIZER                                                                                  
0001740000000045186PPK K.211ÒPRSUT                                                                                    
0001750000000045145PPK K 123ÒSUNKA ZA PICU                                                                            
0001760000000030045E A 1307ÒPANIRANI STAPICI R.                                                                       
0001770000000030038E.A 1001ÒOSLIC BEZ GLAVE R                                                                         
0001780000000030039E A 1005ÒSKUSA S GLAVOM                                                                            
0001790000000030040E A 1009ÒPAPALINA SPROTA R.                                                                        
0001800000000059145PPK K.007ÒTIROLSKA                                                                                 
0001810000000070825SIRELA 50620ÒDALMATINAC                                                                            
0001820000000070826SIRELA 54399ÒPRIMORAC                                                                              
0001830000000070011PIK V. 17027ÒPUCKA KOBASICA R.                                                                     
0001840000000071678WIN *5520*SIR WARAZDINAC MINI 5520* SIR WARAZDINAC**WIN *5520*SIR WARAZ**VU,*5520*BAPCB*           
0001850000000030049E-A 1030 LIGNJAÒOCISCENA TUBA                                                                      
0001860000000070827SIRELA 79810 ZAGREB.ÒSVJEZI SIR 30%                                                                
0001870000000059637SIRELA 78464 DOM.ÒSVJEZI SIR 30%                                                                   
0001880000000016377DIONIZ 002KÒOSLIC F.2.K. DO 500                                                                    
0001890000000030055E-A 1312 RIB.STAPICI 2                                                                             
0001900000000045507PPK K. 141 LJETNAÒKOBASICA                                                                         
0001910000000040043VIR 93001 STIJES.ÒSUNKA U OVITKU                                                                   
0001920000000040050KOKA 93005 TIROLSKA KOBASICA                                                                       
0001930000000040072KOKA 93015 MORTADELA                                                                               
0001940000000040080VIR 93018 JEGER DOMAÆI                                                                             
0001950000000040090VIR 93036 PARIŠKA KOBAS.Ò                                                                          
0001960000000040098VIR 93046 ŠUNKA U ÒOVITKU MIDI                                                                     
0001970000000039557VIR 93047 ŠUNKARICA MIDI                                                                           
0001980000000040066VIR 93122 ŠUNKA TOAST                                                                              
0001990000000040067VIR 93123 ŠUNKA MINI                                                                               
0002000000000040074VIR 93125 ŠUNKA PIZZAÒ(POLUKONZERVA)                                                               
0002010000000065612DAL.BUÐOLA V.P.                                                                                    
0002020000000065609DAL.DALMAT.PANCETA                                                                                 
0002030000000065610DAL. DALMAT. PANCETA V.P.                                                                          
0002040000000065608DAL. PRŠUT BK V.P.                                                                                 
0002050000000065607DAL.PRŠUT NAREZANI V.P.                                                                            
0002060000000065606DAL. PRŠUT SK                                                                                      
0002070000000065613DAL.SUHA SVINJ.PEÈ.V.P.                                                                            
0002080000000054044DANICA 3761 ŠUNKAÒU OVITKU MINI                                                                    
0002090000000010216PIPO 15-003 PILEÆAÒPOSEBNA                                                                         
0002100000000010217PIPO 15-006 MINI                                                                                   
0002110000000010219PIPO 15-008 JEGERÒLOVAÈKA KOBAS.                                                                   
0002120000000010218PIPO 15-009 PIPOÒS POVRÆEM                                                                         
0002130000000010220PIPO 15-010 PILEÆAÒJETRENA PAŠTETA                                                                 
0002140000000010221PIPO 15-012 SAÒŠAMPINJONIMA                                                                        
0002150000000060348PP 1203 POLI MINI                                                                                  
0002160000000030245KRAS 1290 ALPSKAÒSALAMA MINI                                                                       
0002170000000030258E-A1011 LIGNJA RINFUZA                                                                             
0002180000000040225VIR 93003 ŠUNKARICA                                                                                
0002190000000040224VIR 93132ÒTIROLSKA MINI                                                                            
0002200000000010379PIPO PILEÆE HRENOVKE                                                                               
0002210000000010520PIPO PILEÆA PRSA U OVITKU                                                                          
0002220000000045320IMPROM MORTADELA                                                                                   
0002230000000045326IMPROM MORTAD.S MASLIN.                                                                            
0002240000000040228VIR WIENA SALAMA                                                                                   
0002250000000040229VIR VIRKO POLUTR.KOBAS.                                                                            
0002260000000040230VIR MORTADELA MINI                                                                                 
0002270000000022279IMPROM DELIKAT.ŠUNKA                                                                               
0002280000000039568KOKA 11132SMRZNUTIÒFILE OD PRSIJU                                                                  
0002290000000045784IMPROM 35-07ÒVEGETAR. SA SIROM                                                                     
0002300000000018314SIRELA GOUDA 250G                                                                                  
0002310000000018313SIRELA GOUDA 500G                                                                                  
0002320000000018446GAVR.SRIJEM.KOB.VAC                                                                                
0002330000000018470GAVR.PIL.OBAR.KOB.MINI                                                                             
0002340000000018473GAVR.PIL.OBAR.KOBAS.                                                                               
0002350000000018474GAVR.PARIŠ.KOB.SPOVR.                                                                              
0002360000000018476GAVR.ŠUNKA OVIT.MINI                                                                               
0002370000000018466GAVR.ŠUNKA U OVITKU                                                                                
0002380000000020939STAN 650 ŠUNKAÒZA PIZZU MANIRA                                                                     
0002390000000018448GAVR.SRIJEMSKA KOBAS.                                                                              
0002400000000018449GAVR.ÈAJNA KOBAS.                                                                                  
0002410000000018450GAVR.HRENOVKE/VAC 2P/                                                                              
0002420000000018451GAVR.HRENOVKE KOKTEL                                                                               
0002430000000018453GAVR.BUDJOLA                                                                                       
0002440000000018454GAVR.SLAN.PEÈ.MES.VAC                                                                              
0002450000000018455GAVR.KRANJ.KOB.VAC                                                                                 
0002460000000018456GAVR.PETRINJSKE KOB.                                                                               
0002470000000018463GAVR.ZAGREB.KOBAS.                                                                                 
0002480000000070829SIRELA 79958ÒPODRAVEC 250GR CCA                                                                    
0002490000000070830SIRELA 70830ÒPODRAVEC 500GR CCA                                                                    
0002500000000022299GAVRIL.SAFALADA/VAC/                                                                               
0002510000000044321PPK ZIMSKA SALAMA VP                                                                               
0002520000000049991PIPO  12-014 PIL.ÒBATAK I ZABATAK                                                                  
0002530000000049992PIPO 11-203 PIL.ÒPRSA NA PODLOŠKU                                                                  
0002540000000049993PIPO 11-205 PIL.ÒJETRA SA SRCEM                                                                    
0002550000000049994PIPO 11-206 PIL.ÒŽELUCI NA PODLOŠKU                                                                
0002560000000049995PIPO 11-208 PIL.ÒKRILCA NA PODLOŠKU                                                                
0002570000000049990PIPO 15-001ÒUSITNJENO MESO                                                                         
0002580000000064071KOKA BATAK SMRZ.ÒNA PODLOŠKU                                                                       
0002590000000065614DALM. PRŠUTÒOSTACI V.P.                                                                            
0002600000000060376PP BUÐOLA                                                                                          
0002610000000060377PP PLEÆKA                                                                                          
0002620000000018655GAVRIL.HREN.PILEÆE(VAC)                                                                            
0002630000000022953BELJE BARANJSKI KULEN                                                                              
0002640000000022952BELJE DALM.PANCETA VAK                                                                             
0002650000000022959BELJE DOM.DIMLJ.SLANINA                                                                            
0002660000000022955BELJE EXTRA KOBASICA                                                                               
0002670000000022957BELJE HAMBURGER VAK                                                                                
0002680000000022599BELJE HRENOVKEÒVAKUM.                                                                              
0002690000000022954BELJE PARIŠKA KOBAS.                                                                               
0002700000000022700BELJE PUÈKA KOB.0,5-2,0KG                                                                          
0002710000000022950BELJE SRIJEMSKA KOB.                                                                               
0002720000000022958BELJE TIROLSKA KOBAS.                                                                              
0002730000000022956BELJE ŠUNKARICA                                                                                    
0002740000000022949BELJE ÈAJNA KOBASICA                                                                               
0002750000000030113DALMESOÒHAMBURGER V.P.                                                                             
0002760000000041265PIPO 15-014 SA SIROM                                                                               
0002770000000022961BELJE M.JEGER VAK                                                                                  
0002780000000065616DAL.BUÐOLAÒNAREZANA V.P.                                                                           
0002790000000065615DALMESOÒKUHANI VRAT V.P.                                                                           
0002800000000039573KOKA11120ÒŽELUCI SMRZ. NA PODLOŠKU                                                                 
0002810000000071870IMPROM 34-04ÒMINI MESNI NAREZAK                                                                    
0002820000000059860KRAS 1168 HAMB,SPEC.VP                                                                             
0002830000000018681VIND. 5805 SIRÒGAUDA OD 2,5 KG                                                                     
0002840000000022963BELJE GOV.KOB.VAC 0,5-2KG                                                                          
0002850000000022962BELJE SUÐUK                                                                                        
0002860000000070673BELJE HRENOVKEÒPILEÆE DO 0,5KG                                                                     
0002870000000050178BELJE HRENOVKEÒVAC 0,5-2KG                                                                         
0002880000000022965BELJE KULENÒRAVNI                                                                                  
0002890000000065156GAVRIL.ZIMSKAÒSALAMA                                                                               
0002900000000010571E-A 1002 OSLIÆ INTERFOL.FILET                                                                      
0002910000000010573IMPROM 35-06ÒVEGETAR.S MASL.                                                                       
0002920000000052022DAL.HAMBURG.ÒNAREZ.V.P.                                                                            
0002930000000040395KOKA 11111 BAT.ZAB.ÒPRSA POD.SMRZ.                                                                 
0002940000000060380PP 0000 BATACI 3/1                                                                                 
0002950000000015727GAVRIL.SUDJUKÒVAC.                                                                                 
0002960000000050296GAVRIL.PEÈ.SV.ÒVRAT BK VAKUM.                                                                      
0002970000000022966BELJE ŠUNKAÒZA PIZZU KALUP                                                                         
0002980000000022967BELJE ROŠTILJÒKOBAS.VAK.0,5-2KG                                                                    
0002990000000030591MAG 70266ÒMINESTRONE RINF.                                                                         
0003000000000022984PIPO 11-211 PILECIÒFILE NA PODL.                                                                   
0003010000000014559BELJE SUNKAÒU OVITKU                                                                               
0003020000000029938KRAS 1006 KRASKIÒPRSUT BK VK                                                                       
0003030000000014564DAL.DALMAT.ÒPANCETA NAR.VP.                                                                        
0003040000000014563DAL.KUHANAÒPECENICA V.P.                                                                           
0003050000000060381PP 0000 KRILA                                                                                      
0003060000000014724BELJE MÒPILICI GRILL                                                                               
0003070000000010917DAL. BUDJOLAÒKOCKICE VP                                                                            
0003080000000010918STAN 775 DIMLJENAÒSALAMA NOEL                                                                      
0003090000000010919STAN 113 ŠUNKAÒSA ZACINOM SORGER                                                                   
0003100000000010920STAN 142ÒSUNKA U OVITKU                                                                            
0003110000000069120STAN 106ÒDIMLJENA SALAMA SORGER                                                                    
0003120000000021141PURIS 66ÒROLADA PURECA                                                                             
0003130000000021136PURIS 71ÒPRSA PURECA PODL.                                                                         
0003140000000021137PURIS 72ÒBATAK PURECI PODL.                                                                        
0003150000000060401STAN 107 DINOÒDJECJA KOBASICA                                                                      
0003160000000010921GAVRIL. MESNIÒNAREZAK 2,3 KG                                                                       
0003170000000021140PURIS 80ÒVRAT PURECI PODL.                                                                         
0003180000000099105ZDENKA 030 SIR EMENTALAC                                                                           
0003190000000099136PURIS HREN.VAK.PAK.                                                                                
0003200000000099420PILIÆI GRILL                                                                                       
0003210000000099422PURIS 25ÒDEL.PURECA PRSA MINI                                                                      
0003220000000099437GAVRIL.PEÈ.S VINJ.ÒVRATINA 400G                                                                    
0003230000000099501E-A BAKALAR                                                                                        
0003240000000099541KOKA 12095 DELKOÒPAPRIKA                                                                           
0003250000000099542KOKA 12093 DELKOÒMASLINA MIDI                                                                      
0003260000000099543KOKA 12018 DELKOÒPISTACIJA MIDI                                                                    
0003270000000099551PURIS 73 PUREÆIÒZABATAK                                                                            
0003280000000099473KOKA 12096 DELKOÒPAPRIKA MIDI                                                                      
0003290000000099474KOKA 12089 DELKOÒSA ŠAMPINJON.POLI                                                                 
0003300000000099479KOKA 12015 SENDVICÒSA SIROM MIDI                                                                   
0003310000000099486KOKA 12010 DELKO S MASLINAMA                                                                       
0003320000000099485KOKA 12011 DELKO SÒSAMPINJONIMA                                                                    
0003330000000099499E-A 1045 SKARPINE CCAÒ300G/KOM                                                                     
0003340000000099280E-A 1401 PAN.FILETÒOSLIC CCA 100G                                                                  
0003350000000010555VIR 93135 MESNA ÒPISANICA                                                                          
0003360000000010591GAVRIL. ŠUNKARICAÒMINI                                                                             
0003370000000010625KOKA 12014 SENDVIÈ SA SIROM                                                                        
0003380000000010572VIR 93104 MESNA ÒPISANICA VP 1/2                                                                   
0003390000000011955GAVRIL. SALAMINI                                                                                   
0003400000000065499VIR 93101 MOZAICOÒVRATINA VP 1/2                                                                   
0003410000000055557PIK V.31010 PUÈKAÝ2PARA VP                                                                         
0003420000000055558SIRELA 5404 BIJELI KMEÈKI SIR                                                                      
0003430000000088888E-A 1032 LIGNJA PATAG.ÒC10-13 CM                                                                   
0003440000000088889E-A 1038 OSLIÆ B.G.UTROBEÒI REPA                                                                   
0003450000000088887BELJE M.HAMBURG.RINF.                                                                              
0003460000000088886BELJE M.SUHA REBRA                                                                                 
0003470000000088884DAL. BUÐOLA                                                                                        
0003480000000088882ÐAKOVÈANKA KIS.ÒKUPUS GLAVICA                                                                      
0003490000000088883ÐAKOVÈANKA  KIS.ÒKUPUS REZANI                                                                      
0003500000000088881BELJE HREN.PIL.2P                                                                                  
0003510000000088879PPK 038 ŠUNKA U MREŽI                                                                              
0003520000000088880PPK 073 ROLANA PLEÆKA                                                                              
0003530000000088877STAN ROLANA PLEÆKA MANIRA                                                                          
0003540000000010883KOKA 15050ÒKOMPLET ZA ROSTILJ                                                                      
0003550000000086884BELJE M.DELIKATES MESO ŠUNKE                                                                       
0003560000000086883BELJE M.DIMLJ.MESOÒŠUNKE U KOMADU                                                                  
0003570000000086885BELJE M.SPECIJAL DIMLJENOÒMESO ŠUNKE                                                               
0003580000000086882BELJE M.DOMAÆA DIMLJENAÒŠUNKA SK                                                                   
0003590000000088890L 00523 PRŠUT HERCEGOVAÈKI                                                                         
0003600000000086878PP 26501 SIR PEKORINOÒBARBAGIA 0,5 KG                                                              
0003610000000086877PP 26050 SIR PEKORINO BARBAGIA 2,2 KG                                                              
0003620000000086879PP 26054 SIR PEKORINO ROMANO 1/8                                                                   
0003630000000086880PP 26056 SIR PEKORINO VIZE 1/8                                                                     
0003640000000086881PP 26059 SIR PEKORINOÒROCCE SARDE                                                                  
0003650000000010009POVRCEÒKRUMPIR MLADI BIJELI                                                                        
0003660000000010308POVRCEÒKRUMPIR MLADI BIJELI AKCIJA                                                                 
0003670000000040075POVRCEÒKRUMPIR CRVENI                                                                              
0003680000000020165POVRCEÒKRUMPIR CRVENI AKCIJA                                                                       
0003690000000010010POVRCE KRUMPIRÒBIJELI                                                                              
0003700000000010309POVRCE KRUMPIRÒBIJELI AKCIJA                                                                       
0003710000000010013POVRCE KRUMPIRÒMLADI CRVENI                                                                        
0003720000000010316POVRCE KRUMPIRÒMLADI CRVENI AKCIJA                                                                 
0003730000000040076POVRCE LUKÒCRVENI UVOZ                                                                             
0003740000000020168POVRCE LUKÒCRVENI UVOZ AKCIJA                                                                      
0003750000000010014POVRCE LUKÒLJUBICASTI                                                                              
0003760000000010324POVRCE LUKÒ LJUBICASTI AKCIJA                                                                      
0003770000000040077POVRCE LUKÒBIJELI RINF. I PAK.                                                                     
0003780000000020167POVRCE LUKÒBIJELI RINF. I PAK.AKCIJA                                                               
0003790000000056128VOCE BANANA                                                                                        
0003800000000020084VOCE BANANAÒAKCIJA                                                                                 
0003810000000010015VOCE MINEOLA UVOZ                                                                                  
0003820000000010325VOCE MINEOLAÒUVOZ AKCIJA                                                                           
0003830000000010016VOCE NARANCAÒSPANJOLSKA                                                                            
0003840000000010326VOCE NARANCAÒSPANJOLSKA AKCIJA                                                                     
0003850000000056159VOCE NARANCAÒGRCKA                                                                                 
0003860000000020162VOCE NARANCAÒGRCKA AKCIJA                                                                          
0003870000000040078VOCE GREJPÒBIJELI                                                                                  
0003880000000020103VOCE GREJPÒBIJELI AKCIJA                                                                           
0003890000000010017VOCE GREJPÒCRVENI                                                                                  
0003900000000010339VOCE GREJPÒCRVENI AKCIJA                                                                           
0003910000000014196VOCE LIMUN                                                                                         
0003920000000020161VOCE LIMUNÒAKCIJA                                                                                  
0003930000000010018VOCE KLEMENTINA                                                                                    
0003940000000010349VOCEÒKLEMENTINA AKCIJA                                                                             
0003950000000010019VOCE JABUKAÒGREENY SMIT                                                                            
0003960000000010357VOCE JABUKAÒGREENY SMIT AKCIJA                                                                     
0003970000000040024VOCE JABUKAÒGLOSTER                                                                                
0003980000000020159VOCE JABUKAÒGLOSTER AKCIJA                                                                         
0003990000000040063VOCE JABUKAÒZLATNI DELISES                                                                         
0004000000000020112VOCE JABUKAÒZLATNI DELISES AKCIJA                                                                  
0004010000000010077VOCE JABUKAÒAJDARED                                                                                
0004020000000010358VOCE JABUKAÒAJDARED AKCIJA                                                                         
0004030000000010109VOCE KRUSKA ABATA                                                                                  
0004040000000010362VOCE KRUSKAÒABATA AKCIJA                                                                           
0004050000000010110VOCE KRUSKAÒROZADA                                                                                 
0004060000000010363VOCE KRUSKAÒROZADA AKCIJA                                                                          
0004070000000010126VOCE KRUSKAÒPASA-KRASANA                                                                           
0004080000000010400VOCE KRUSKAÒPASA-KRASANA AKCIJA                                                                    
0004090000000010119VOCE PAPAJO                                                                                        
0004100000000010401VOCE PAPAJOÒAKCIJA                                                                                 
0004110000000010146VOCE KARAMBOLA                                                                                     
0004120000000010417VOCE KARAMBOLAÒAKCIJA                                                                              
0004130000000010147VOCE MANGO                                                                                         
0004140000000010418VOCE MANGOÒAKCIJA                                                                                  
0004150000000010148VOCE AVOKADO                                                                                       
0004160000000010419VOCE AVOKADOÒAKCIJA                                                                                
0004170000000010151VOCE LIMETA                                                                                        
0004180000000010451VOCE LIMETAÒAKCIJA                                                                                 
0004190000000010152VOCEÒKOKOSOV ORAH                                                                                  
0004200000000020388VOCE JABUKAÒAJDARED EKSTRA                                                                         
0004210000000010153VOCE LUBENICA                                                                                      
0004220000000010466VOCE LUBENICAÒAKCIJA                                                                               
0004230000000010154VOCE JAGODA                                                                                        
0004240000000010476VOCE JAGODAÒAKCIJA                                                                                 
0004250000000010155VOCE DINJA                                                                                         
0004260000000010477VOCE DINJAÒAKCIJA                                                                                  
0004270000000010156VOCE ANANAS                                                                                        
0004280000000010478VOCE ANANASÒAKCIJA                                                                                 
0004290000000010157VOCE POMELO                                                                                        
0004300000000010479VOCE POMELOÒAKCIJA                                                                                 
0004310000000010158VOCE BABY ANANAS                                                                                   
0004320000000010502VOCE BABY ANANASÒAKCIJA                                                                            
0004330000000010159VOCE NEKTARINA                                                                                     
0004340000000010507VOCE NEKTARINAÒAKCIJA                                                                              
0004350000000010164VOCE GROZDEÒBIJELO                                                                                 
0004360000000010534VOCE GROZDEÒBIJELO AKCIJA                                                                          
0004370000000010170VOCE GROZDEÒCRNO                                                                                   
0004380000000010543VOCE GROZDEÒCRNO AKCIJA                                                                            
0004390000000010171VOCE GROZDEÒROZA                                                                                   
0004400000000010544VOCE GROZDEÒROZA AKCIJA                                                                            
0004410000000010172VOCE BRESKVA                                                                                       
0004420000000010545VOCE BRESKVAÒAKCIJA                                                                                
0004430000000010173VOCE MARELICA                                                                                      
0004440000000010546VOCE MARELICAÒAKCIJA                                                                               
0004450000000010174VOCE SLJIVAÒBIJELA                                                                                 
0004460000000010552VOCE SLJIVAÒBIJELA AKCIJA                                                                          
0004470000000010177VOCE SLJIVAÒCRNA                                                                                   
0004480000000020390VOCE JABUKAÒGLOSTER EKSTRA                                                                         
0004490000000010178POVRCE KUPUSÒMLADI                                                                                 
0004500000000010561POVRCE KUPUSÒMLADI AKCIJA                                                                          
0004510000000040108POVRCE KUPUSÒSTARI                                                                                 
0004520000000020166POVRCE KUPUSÒSTARI AKCIJA                                                                          
0004530000000010179POVRCE KUPUSÒCRVENI                                                                                
0004540000000010569POVRCE KUPUSÒCRVENI AKCIJA                                                                         
0004550000000010180POVRCE MRKVAÒRINFUZA                                                                               
0004560000000010533POVRCE MRKVAÒRINFUZA AKCIJA                                                                        
0004570000000010191POVRCE CELER                                                                                       
0004580000000010578POVRCE CELERÒAKCIJA                                                                                
0004590000000040128POVRCE SALATAÒPUTARICA                                                                             
0004600000000020171POVRCE SALATAÒPUTARICA AKCIJA                                                                      
0004610000000010198POVRCE SALATAÒENDIVIJA                                                                             
0004620000000010579POVRCE SALATAÒENDIVIJA AKCIJA                                                                      
0004630000000010233POVRCE SALATAÒICEBERG                                                                              
0004640000000010580POVRCE SALATAÒICEBERG AKCIJA                                                                       
0004650000000010237POVRCE SPINAT                                                                                      
0004660000000010581POVRCE SPINATÒAKCIJA                                                                               
0004670000000010241POVRCE PORILUK                                                                                     
0004680000000010582POVRCE PORILUKÒAKCIJA                                                                              
0004690000000040129POVRCE CVJETACA                                                                                    
0004700000000020163POVRCE CVJETACAÒAKCIJA                                                                             
0004710000000040130POVRCE KRASTAVAC                                                                                   
0004720000000020365POVRCE KRASTAVACÒAKCIJA                                                                            
0004730000000040134POVRCE KELJ                                                                                        
0004740000000020366POVRCE KELJÒAKCIJA                                                                                 
0004750000000010242POVRCE KELJÒPUPCAR PROKULICA                                                                       
0004760000000020367POVRCE KELJÒPUPCAR PROKULICA AKCIJA                                                                
0004770000000010256POVRCE KELERABA                                                                                    
0004780000000020368POVRCE KELERABAÒAKCIJA                                                                             
0004790000000010267POVRCE BLITVA                                                                                      
0004800000000020369POVRCE BLITVAÒAKCIJA                                                                               
0004810000000020173POVRCEÒMLADI LUK                                                                                   
0004820000000020172POVRCEÒMLADI LUK AKCIJA                                                                            
0004830000000010268POVRCE PERSINÒLIST                                                                                 
0004840000000020370POVRCE PERSINÒLIST AKCIJA                                                                          
0004850000000010269POVRCE PERSINÒKORJEN                                                                               
0004860000000020371POVRCE PERSINÒKORJEN AKCIJA                                                                        
0004870000000010270POVRCE BROKOL                                                                                      
0004880000000020372POVRCE BROKOLÒAKCIJA                                                                               
0004890000000010291POVRCE ROTKVA                                                                                      
0004900000000020373POVRCE ROTKVAÒAKCIJA                                                                               
0004910000000010292POVRCE PATLIDZAN                                                                                   
0004920000000020374POVRCE PATLDZANÒAKCIJA                                                                             
0004930000000010295POVRCE PAPRIKAÒBABURA                                                                              
0004940000000020375POVRCE PAPRIKAÒBABURA AKCIJA                                                                       
0004950000000010296POVRCE PAPRIKAÒCRVENA                                                                              
0004960000000020376POVRCE PAPRIKAÒCRVENA AKCIJA                                                                       
0004970000000010297POVRCE PAPRIKAÒZUTA                                                                                
0004980000000020377POVRCE PAPRIKAÒZUTA AKCIJA                                                                         
0004990000000010301POVRCE PAPRIKAÒZELENA                                                                              
0005000000000020378POVRCE PAPRIKAÒZELENA AKCIJA                                                                       
0005010000000010302POVRCE PAPRIKAÒSPIC                                                                                
0005020000000020379POVRCE PAPRIKAÒSPIC AKCIJA                                                                         
0005030000000010306POVRCE RAJCICAÒGRAPOLO                                                                             
0005040000000020380POVRCE RAJCICAÒGRAPOLO AKCIJA                                                                      
0005050000000040118POVRCE RAJCICA                                                                                     
0005060000000020170POVRCE RAJCICAÒAKCIJA                                                                              
0005070000000010307POVRCE GLJIVEÒBUKOVACE                                                                             
0005080000000020381POVRCE GLJIVEÒBUKOVACE AKCIJA                                                                      
0005090000000086886VIR 93114 PIZZAÒSUNKA MINI                                                                         
0005100000000088876VIR 93071 PLECKA ÒSA KOSTIMA                                                                       
0005110000000030054E-A 1206 NOISELTESÒKUGLICE 2,5 KG                                                                  
0005120000000060382PP BATACI CCA 1 KG                                                                                 
0005130000000045116PPK K.121 TIROLSKAÒKOBASICA MINI                                                                   
0005140000000018447GAVRILOVIC PASTETAÒCAJNA U OVITKU                                                                  
0005150000000010461VOCEÒKOKOSOV ORAH AKCIJA                                                                           
0005160000000010560VOCE SLJIVAÒCRNA AKCIJA                                                                            
0005170000000020389VOCE JABUKAÒAJDARED EKSTRA AKCIJA                                                                  
0005180000000020391VOCE JABUKAÒGLOSTER EKSTRA AKCIJA                                                                  
0005190000000030043E-A 1190 SKARPINAÒBEZ GLAVE 800 G                                                                  
0005200000000020940BELJEÒPLECKA S PODLAKTICOM                                                                         
0005210000000060368PP KOKOSI LAKE                                                                                     
0005220000000020392POVRCE HREN                                                                                        
0005230000000020393POVRCE HRENÒAKCIJA                                                                                 
0005240000000020394KRIZ. PLECKAÒDIMLJENA ROL.BK                                                                       
0005250000000020395DANICA 3853ÒSUNKA ROLANA                                                                           
0005260000000020396VOCEÒNARANCA MANDORA                                                                               
0005270000000020397VOCEÒNARANCA MANDORA AKCIJA                                                                        
0005280000000060408STAN 312/119ÒKARE SPEK                                                                             
0005290000000020398STAN 253 EMENTALERÒBLOK OKRUGLI 80 KG                                                              
0005300000000020399STAN 265 DIMLJENIÒSIR U ROLI 2 KG                                                                  
0005310000000020400STAN 773 KULENÒCHORIZIO NOEL                                                                       
0005320000000020401GAVRIL.SRIJEMSKAÒKOB.-MINI /VAC/                                                                   
0005330000000020402STAN 002 GOODLIFEÒMARIGOLD 3 KG                                                                    
0005340000000020403VOCE MANDARINA                                                                                     
0005350000000020404VOCE MANDARINA AKCIJA                                                                              
0005360000000020407POVRCE GRASAK MLADI                                                                                
0005370000000020408POVRCE GRASAK MLADI AKCIJA                                                                         
0005380000000020409POVRCE MAHUNA AKCIJA                                                                               
0005390000000040406POVRCE MAHUNA                                                                                      
0005400000000020410ACCRAÒMINI YORK SUNKA                                                                              
0005410000000020411ACCRAÒMORTADELA SICILIANA                                                                          
0005420000000079008L 00255 PRSUTÒHERC.VP.B.KL.                                                                        
0005430000000010878E-A 1060 SIPAÒOCISCENA TAJVANSKA                                                                   
0005440000000010884VOCE TRESNJA                                                                                       
